:1000000000F00120E10400003D0500003D05000076
:100010003D0500003D0500003D050000000000001A
:100020000000000000000000000000003D0500008E
:100030003D050000000000003D0500003D050000FA
:100040003D0500003D0500003D0500003D050000A8
:100050003D0500003D0500003D0500003D05000098
:100060003D0500003D0500003D0500003D05000088
:100070003D0500003D0500003D0500003D05000078
:1003F0003D0500003D0500003D050000FFFFFFFF3B
:10040000FFFFFFFFFFFFFFFFFFFFFFFFFE7FFFFF7D
:1004100010B5054C237833B9044B13B10448AFF33E
:1004200000800123237010BD0000002000000000A8
:1004300088A10400084B10B51BB108480849AFF368
:1004400000800848036803B910BD074B002BFBD0A0
:10045000BDE81040184700BF0000000088A104005C
:1004600004000020C412FE1F00000000154B002BEA
:1004700008BF134B9D46A3F5803A00218B460F46DB
:100480001348144A121A42F017FB0F4B002B00D0EE
:1004900098470E4B002B00D0984700200021040005
:1004A0000D000D48002802D00C4842F0E7FB42F056
:1004B000DBFA2000290042F099F842F0C5FA00BFAB
:1004C0000000080000F00120000000000000000013
:1004D0000000002098D501207D2C0400892C040008
:1004E00072B610490F4A0F4B0E4C0E4D0D4E0D4F6C
:1004F000B846B946BA46BB46BC460B4880470B498E
:100500000B4A521A013A05DD002004230860194401
:10051000043AFBDA074885460748804762B6FFF78A
:10052000A5FFFEE700000000010304000000FE1F1D
:1005300000F0012000F00120D9010400FFF7FEBF08
:1005400053B94AB9002908BF00281CBF4FF0FF313A
:100550004FF0FF3000F03CB882B0EC462DE900507F
:1005600000F01EF8DDF804E002B00CBC704700BFDC
:100570002DE9F041069C154606460F46984600F0C8
:1005800029F805FB01F300FB0838A5FB0023B21A8C
:10059000434467EB0303C4E90023BDE8F08100BFD7
:1005A0002DE9F041069C904606460F461D4600F098
:1005B0005FF900FB05F5A0FB082308FB0155B21A03
:1005C0002B4467EB0303C4E90023BDE8F08100BFBF
:1005D000704700BF00292DE9F043C0F2A680002635
:1005E000002BC0F29C80884694469E4615460446E1
:1005F0000F46002B3DD18A4259D9B2FA82F33BB162
:10060000C3F120029F4020FA02F29D4017439C4014
:10061000290C220CB7FBF1FEA8B201FB1E7742EABF
:10062000074700FB0EF3BB420AD97F190EF1FF32D8
:1006300080F00581BB4240F20281AEF1020E2F44F0
:10064000FF1AA4B2B7FBF1F301FB137744EA0747A3
:1006500000FB03F0B84208D97F1903F1FF3280F0A4
:10066000F080B84240F2ED80023B43EA0E430022A4
:1006700003E08B420FD900221346341C18BF01241B
:1006800060424FF0000565EB4501584051400019AC
:100690006941BDE8F083B3FA83F2002A40F0868016
:1006A0008B4202D3844500F2DB800123E5E712B9D7
:1006B0000123B3FBF2F5B5FA85F000283BD1781B96
:1006C0004FEA154E1FFA85FC0122B0FBFEF8210C03
:1006D0000EFB180741EA07470CFB08F3BB4207D99A
:1006E0007F1908F1FF3102D2BB4200F2BD8088467B
:1006F000FF1AA4B2B7FBFEF30EFB137744EA0747D9
:100700000CFB03FCBC4507D97F1903F1FF3102D272
:10071000BC4500F2A7800B4643EA0843ADE75242CE
:100720006FEA060663EB43035DE7404261EB41017C
:100730004FF0FF3654E7C0F1200224FA02F107FA25
:1007400000F385404FEA154ED7401943B7FBFEF240
:100750000B0C0EFB12771FFA85FC43EA07430CFBD8
:1007600002F79F4204FA00F407D95B1902F1FF3047
:1007700074D29F4272D9023A2B44DF1B89B2B7FB75
:10078000FEF80EFB187341EA03430CFB08F79F4287
:1007900008D95B1908F1FF315CD29F425AD9A8F100
:1007A00002082B44D81B48EA02428EE7C2F120031C
:1007B0002CFA03F10EFA02FE20FA03F741EA0E0EBC
:1007C00008FA02F028FA03F14FEA1E453843B1FB5C
:1007D000F5F8030C05FB18111FFA8EF743EA0141E7
:1007E00007FB08F38B420CFA02FC09D911EB0E014E
:1007F00008F1FF3930D28B422ED9A8F1020871449A
:10080000C91A80B2B1FBF5F305FB131140EA0141AF
:1008100007FB03F78F4208D911EB0E0103F1FF30FC
:1008200016D28F4214D9023B714443EA0843C91BD4
:10083000A3FB0C89494509D305D000221DE7964644
:10084000FEE6134611E794404445F6D2013BF4E737
:100850000346EAE78846A5E7C846D1E702468CE7A3
:1008600013460AE7023B57E7A8F102082F443FE787
:100870002DE9F041002B44D18A42154604464FD958
:10088000B2FA82F70E464FB1C7F12003B94020FA01
:1008900003F602FA07F50E4300FA07F44FEA154E85
:1008A000230CB6FBFEF0AFB20EFB106143EA01432E
:1008B00007FB00F1994209D95B1900F1FF3280F082
:1008C000EC80994240F2E98002382B445A1AA4B2D3
:1008D000B2FBFEF30EFB132244EA024207FB03F7CE
:1008E000974208D9521903F1FF3180F0D88097421E
:1008F00040F2D580023B43EA004000263146BDE885
:10090000F0818B4247D8B3FA83F6002E48D18B4250
:1009100002D3824200F2CD8001203146BDE8F08151
:1009200012B90125B5FBF2F5B5FA85F8B8F1000F5B
:1009300077D14A1B4FEA154EAFB20126B2FBFEF04B
:10094000230C0EFB102143EA014107FB00F38B420D
:1009500007D9491900F1FF3202D28B4200F2BA8066
:100960001046C91AA4B2B1FBFEF30EFB131144EA00
:10097000014407FB03F7A74208D9641903F1FF32CA
:1009800080F08F80A74240F28C80023B43EA004017
:100990003146BDE8F081002630463146BDE8F081A1
:1009A000C6F1200422FA04F5B3402B4320FA04FCDC
:1009B00001FA06F721FA04F54FEA134E4CEA07074D
:1009C000B5FBFEF8390C0EFB18551FFA83FC41EA03
:1009D00005450CFB08F1A94202FA06F204D9ED180C
:1009E00008F1FF3467D3A0466D1ABFB2B5FBFEF421
:1009F0000EFB145547EA05410CFB04FC8C4504D959
:100A0000C91804F1FF355CD32C4644EA0844CCEB0A
:100A10000101A4FB0223994248D344D0204600267A
:100A20006CE7C8F1200401FA08F305FA08F520FA8A
:100A300004F7E1404FEA154E1F43B1FBFEF63A0CB6
:100A40000EFB16111FFA85FC42EA01430CFB06F26D
:100A50009A4200FA08F407D95B1906F1FF3137D240
:100A60009A4235D9023E2B449B1ABFB2B3FBFEF02B
:100A70000EFB103347EA03430CFB00F1994207D900
:100A80005B1900F1FF3221D299421FD902382B4461
:100A90005A1A40EA0646674650E7104616E70B46E4
:100AA00029E7134672E7B0409042B7D2601E002695
:100AB00024E7304622E7A94295D9A8F102081D444F
:100AC00092E78C45A0D9023C19449EE71046DFE727
:100AD0000E46C9E70238294443E700BF844641EA8D
:100AE000000313F003036DD1403A41D351F8043BA6
:100AF00040F8043B51F8043B40F8043B51F8043BF8
:100B000040F8043B51F8043B40F8043B51F8043BE7
:100B100040F8043B51F8043B40F8043B51F8043BD7
:100B200040F8043B51F8043B40F8043B51F8043BC7
:100B300040F8043B51F8043B40F8043B51F8043BB7
:100B400040F8043B51F8043B40F8043B51F8043BA7
:100B500040F8043B51F8043B40F8043B51F8043B97
:100B600040F8043B51F8043B40F8043B403ABDD206
:100B7000303211D351F8043B40F8043B51F8043BA8
:100B800040F8043B51F8043B40F8043B51F8043B67
:100B900040F8043B103AEDD20C3205D351F8043B37
:100BA00040F8043B043AF9D2043208D0D2071CBF03
:100BB00011F8013B00F8013B01D30B88038060462C
:100BC000704700BF082A13D38B078DD010F00303A2
:100BD0008AD0C3F10403D21ADB071CBF11F8013B12
:100BE00000F8013B80D331F8023B20F8023B7BE761
:100BF000043AD9D3013A11F8013B00F8013BF9D28C
:100C00000B7803704B7843708B7883706046704725
:100C100080B483B000AF7860054B9A7A7B681A7015
:100C2000002318460C37BD465DF8047B704700BFB3
:100C3000602E002080B400AFBD465DF8047B704795
:100C400080B483B000AF78600C37BD465DF8047B9C
:100C5000704700BF80B584B000AF78600123BB73DC
:100C60007B68002B07D13C2000210122142337F0A0
:100C700025FA0023BB73BB7B012B20D1124B1B78C1
:100C8000002B1CD0114A7B6813600F4B00221A7096
:100C90000023FB730EE0FB7B0D4A0121D154FB7B4B
:100CA0000C4A0021D154FB7B0B4A0121D154FB7B20
:100CB0000133FB73FB7B072BEDD900F005FF00BF71
:100CC0001037BD4680BD00BF7804FE1F30000020F5
:100CD00048000020400000203400002080B584B08F
:100CE00000AF03460A46FB711346BB710123FB7339
:100CF0000123BB73294B1B78002B07D03C2000211C
:100D000003221E2337F0DAF90023BB73BB7B012BD0
:100D10000AD1FB79072B07D93C20002103220F239E
:100D200037F0CCF90023BB73BB7B012B0DD1BB7912
:100D3000032B02D8BB79002B07D13C2000210322D2
:100D4000152337F0BBF90023BB73BB7B012B1FD1ED
:100D5000BB79022B04D0032B09D0012B0ED014E059
:100D6000FB79184600F016FB0346FB7310E0FB7995
:100D7000184600F03DFB0346FB7309E0FB7918467B
:100D800000F06EFB0346FB7302E00123FB7300BF20
:100D9000FB7B18461037BD4680BD00BF7804FE1FA0
:100DA00080B584B000AF03463960FB800123FB733C
:100DB0000123BB733D4B1B78002B07D03C20002147
:100DC00005221E2337F07AF90023BB73BB7B012B6E
:100DD0000AD13B68002B07D13C20002105221423B7
:100DE00037F06CF90023BB73BB7B012B0AD1FB8866
:100DF0002D2B07D93C2000210522322337F05EF944
:100E00000023BB73BB7B012B15D1294B1B681A69CF
:100E1000FB885B011344DB699B78012B0BD13B689A
:100E20009B68002B07D13C2000210522142337F0BA
:100E300045F90023BB73BB7B012B32D101237B73AC
:100E40001B4B1B681A69FB885B0113441B7B012B3E
:100E500008D0174B1B681A69FB885B0113441B7B86
:100E6000032B07D13B685B68402B02D900237B73BF
:100E700006E005E03B685B68082B01D900237B7323
:100E80007B7B012B07D1FB881846396800F08EFF69
:100E90000346FB7305E03C20002105223E2337F08A
:100EA00037F9FB7B18461037BD4680BD7804FE1F1E
:100EB0003000002080B584B000AF03460A46FB71C5
:100EC0001346BB710123FB730123BB732B4B1B78B0
:100ED000002B07D03C20002109221E2337F0EEF81A
:100EE0000023BB73BB7B012B0AD1FB79072B07D9EE
:100EF0003C20002109220F2337F0E0F80023BB73C8
:100F0000BB7B012B0DD1BB79032B02D8BB79022B04
:100F100007D13C2000210922162337F0CFF8002307
:100F2000BB73BB7B012B23D1FB79154AD35C022B0E
:100F30001ED1BB79012B0AD0032B0FD0002B14D16B
:100F4000FB79104A0021D1540023FB7310E0FB7998
:100F50000C4A0121D1540023FB7309E0FB79094AB3
:100F60000321D1540023FB7302E00123FB7300BF74
:100F7000FB7B18461037BD4680BD00BF7804FE1FBE
:100F8000480000204000002080B58AB000AF034632
:100F9000FB80FF2387F82630012387F82530974B05
:100FA0001B78002B08D03C20002113221E2337F091
:100FB00085F8002387F8253097F82530012B0BD1D1
:100FC000FB882D2B08D93C20002113220D2337F05C
:100FD00075F8002387F8253097F82530012B40F06D
:100FE0000881874B1B681A69FB885B011344DB8906
:100FF0007B84834B1B689B685A687B8CDB001344A3
:101000001B7887F821307E4B1B681A69FB885B01CF
:1010100013441B8AFB83FB8B042B00F2C580002347
:1010200087F827304EE0FB8B764A52F8231097F86A
:10103000272013465B0013449B000B441B78012BB5
:101040003BD197F82630FF2B13D1FB8B6D4A52F81A
:10105000231097F8272013465B0013449B000B4492
:101060005B6823F06043FB6097F8273087F82630F1
:1010700023E0F968FB8B634A52F8230097F8272096
:1010800013465B0013449B0003445B6823F06043FA
:10109000994212D9FB8B5B4A52F8231097F827200C
:1010A00013465B0013449B000B445B6823F06043D2
:1010B000FB6097F8273087F8263097F82730013300
:1010C00087F827304E4B1B685A69FB8B13441B78FB
:1010D00097F827209A42A6D397F82630FF2B63D0A3
:1010E000474B1B689B685A687B8CDB0013445B682A
:1010F0001B88BB83FB8B434A52F8231097F82620AA
:1011000013465B0013449B000B445B78BB74FB8B62
:101110003C4A52F8231097F8262013465B001344EC
:101120009B000B449B687B61FB8B364A52F8231073
:1011300097F8262013465B0013449B000B445B8802
:101140003B82FB8B2F4A52F8231097F82620134638
:101150005B0013449B000B445B68FB60284B1B68DF
:101160005A6897F82130DB0013445B78FB76FB7EEE
:10117000254ADB0013445B68B98B07F10C02084673
:10118000114698470346BB76BB7E002B0CD1FB8BE8
:101190001C4A52F8231097F8262013465B0013448C
:1011A0009B000B4400221A7097F82130174AD35C39
:1011B000022B04D197F82130154A0021D154104B4D
:1011C0001B681A69FB885B0113449B69002B10D0D4
:1011D0000B4B1B681A69FB885B0113449B69084A27
:1011E00012681169FA8852010A44D26912881046BD
:1011F000984700BF2837BD4680BD00BF7804FE1F5A
:10120000300000203C04FE1F982D04004800002000
:101210003400002080B584B000AF786039600023CE
:10122000BB810123FB73384B1B78002B07D03C207C
:10123000002114221E2336F041FF0023FB73FB7BA9
:10124000012B0DD17B68002B02D03B68002B07D10E
:101250003C2000211422142336F030FF0023FB73BE
:10126000FB7B012B21D17B681B68002B0FDA7B688D
:101270001B6803F02043B3F1004F16D03C2000213F
:1012800014220A2336F01AFF0023FB730DE07B685B
:101290001A681E4B1340002B07D03C20002114225B
:1012A0000A2336F00BFF0023FB73FB7B012B27D1B6
:1012B0007B6898797B6899887B681A6807F10C03CA
:1012C00000F020F90346002B1AD13B685A68104BF6
:1012D0001B68D968BB89184603469B000344DB00A2
:1012E0000B441B699A4206D23C20002114223D2364
:1012F00036F00EFF04E0BB891846396800F026FD81
:1013000000BF1037BD4680BD7804FE1F00F8FFBF48
:101310003000002080B584B000AF03460A46FB7160
:101320001346BB710123FB73174B1B78002B07D0AF
:101330003C20002117221E2336F0C0FE0023FB7341
:10134000FB7B012B0AD1FB79072B07D93C2000211D
:1013500017220F2336F0B2FE0023FB73FB7B012B19
:101360000ED1FB790949BA79CA54094B5B68002B45
:1013700006D0074B5B68F979BA7908461146984759
:1013800000BF1037BD4680BD7804FE1F4800002016
:101390008C2D040080B584B000AF0346FB7101239F
:1013A000FB73114B1B685A68FB79DB0013445B78B5
:1013B000BB730D4B1B685A68FB79DB0013445B68F9
:1013C0001B787B73BB7B094A52F83330FA7910469D
:1013D000012198470346002B01D10023FB73FB7BBF
:1013E00018461037BD4680BD30000020982D0400FF
:1013F00080B584B000AF0346FB710123FB73154B2E
:101400001B685A68FB79DB0013445B78BB73114B94
:101410001B685A68FB79DB0013445B681B787B739D
:10142000BB7B0D4A52F833307A7B10460221984735
:101430000346002B09D1FB79084A0021D154FB79DE
:10144000184600F003F90023FB73FB7B18461037A6
:10145000BD4680BD30000020982D040040000020D3
:1014600080B584B000AF0346FB710123FB73214BB1
:101470001B685A68FB79DB0013445B78BB731D4B18
:101480001B685A68FB79DB0013445B681B787B732D
:10149000FB79194AD35C032B11D1BB7B174A52F855
:1014A00033307A7B1046032198470346002B1BD12B
:1014B000FB79134A0121D1540023FB7314E0BB7B59
:1014C0000E4A52F833307A7B104600219847034683
:1014D000002B09D1FB79184600F0DEFAFB79084AA7
:1014E0000121D1540023FB73FB7B18461037BD4606
:1014F00080BD00BF3000002048000020982D04006F
:101500004000002080B586B000AFBA607B60034623
:10151000FB730B46BB810023FB820023FB7401237A
:10152000BB7400237B740023BB821DE0464B1B6809
:101530009B681A68BB8A1B011344DB681B88BA8945
:101540009A420ED1404B1B689B681A68BB8A1B01EC
:1015500013441B78FA7B9A4203D10123FB74BB8AA4
:10156000FB82BB8A0133BB82BB8A1A2B02D8FB7C6D
:10157000002BDBD0FB7C012B5BD1334B1B689B68C2
:101580001A68FB8A1B0113445B783B742E4B1B6863
:101590009B681A68FB8A1B011344DB689B78002B4D
:1015A0003ED13B7C002B3BD00023BB822EE0BB68AE
:1015B00023F06042244B1B689B681968FB8A1B015F
:1015C0000B449968BB8ADB000B441B689A421AD310
:1015D000BB6823F060421C4B1B689B681968FB8A40
:1015E0001B010B449968BB8ADB000B445B689A4281
:1015F00009D801237B74FB8A1846B9687A6800F021
:10160000BBFA0346BB74BB8A0133BB823B7C9BB2F3
:10161000BA8A9A4202D27B7C002BC8D000BF0EE06F
:10162000FB8A1846B9687A6800F0A6FA0346BB74CC
:1016300005E03C20002114220C2336F03FFDBB7C4A
:1016400018461837BD4680BD3000002080B487B0F2
:1016500000AF0346FB710023FB824BE000237B7548
:101660003CE0FB8A284A52F823107A7D13465B003F
:1016700013449B000B441B78012B2CD1FB8A224A7C
:1016800052F823107A7D13465B0013449B000B44F1
:101690005B887B821D4B1B681A697B8A5B01134444
:1016A000DB893B82194B1B689B685A683B8ADB00CD
:1016B00013441B78FB73FA79FB7B9A420BD1FB8AAC
:1016C000114A52F823107A7D13465B0013449B00A5
:1016D0000B4400221A707B7D01337B750B4B1B681A
:1016E0005A69FB8A13441B787A7D9A42B9D3FB8AE4
:1016F0000133FB82FB8A042BB0D900BF1C37BD46E7
:101700005DF8047B704700BF3C04FE1F30000020E2
:1017100080B584B000AF78600123FB73FF237B7337
:10172000674B1B681A697B689B885B0113441B8AA3
:101730007B817B89042B00F2BE800023BB735FE0BA
:101740007B89604A52F82310BA7B13465B0013442E
:101750009B000B445A887B689B889A423BD17B89CB
:10176000584A52F82310BA7B13465B0013449B007F
:101770000B447A6812685A607B89524A52F82310E7
:10178000BA7B13465B0013449B000B4401221A7082
:101790007B894C4A52F82310BA7B13465B001344F2
:1017A0009B000B447A6892795A707B89454A52F8BB
:1017B0002310BA7B13465B0013449B000B449968CB
:1017C0007B689A687B689B79084611461A4600F048
:1017D000C3F80023FB737B7BFF2B0ED17B89394A37
:1017E00052F82310BA7B13465B0013449B000B4452
:1017F0001B78002B01D1BB7B7B73BB7B0133BB739D
:101800002F4B1B685A697B8913441B78BA7B9A4219
:1018100002D2FB7B012B93D0FB7B012B4BD17B7B3B
:10182000FF2B48D07B89274A52F823107A7B134636
:101830005B0013449B000B447A6812685A607B89F2
:10184000204A52F823107A7B13465B0013449B0016
:101850000B4401221A707B891A4A52F823107A7BB2
:1018600013465B0013449B000B447A6892885A80AD
:101870007B89144A52F823107A7B13465B00134489
:101880009B000B447A6892795A707B890D4A52F812
:1018900023107A7B13465B0013449B000B4499682A
:1018A0007B689A687B689B79084611461A4600F067
:1018B00053F80023FB73FB7B18461037BD4680BDF1
:1018C000300000203C04FE1F80B485B000AF03460A
:1018D000FB710023FB8132E01D4B1B681A69FB89F9
:1018E0005B011344DB89BB81194B1B689B685A68F9
:1018F000BB89DB0013441B78FB72FA79FB7A9A42AE
:101900001AD1134B1B681A69FB895B0113449B7C3A
:10191000002B11D10E4B1B681A69FB895B01134424
:101920009B8A19460A4B1B681A69FB895B011344A1
:101930005B68084A42F82130FB890133FB81FB894F
:101940002D2BC9D900BF1437BD465DF8047B704705
:10195000300000203C00002080B487B000AFF86069
:10196000B9607A607B687B6112E0FB68002B12D063
:10197000BB68002B0FD0BB681A78FB681A70FB6835
:101980000133FB60BB680133BB607B69013B7B615A
:101990007B69002BE9D100BF1C37BD465DF8047B95
:1019A000704700BF80B487B000AF0346B9607A606B
:1019B000FB81374B1B681A69FB895B0113441B7B56
:1019C000FB75334B1B681A69FB895B0113449B7CD5
:1019D000002B0FD12E4B1B681A69FB895B01134446
:1019E0009B8A1A462B4B53F822303B617B683A693D
:1019F0001A6008E0264B1B681A69FB895B011344D7
:101A00005A687B681A60FB7D012B0BD0032B10D02A
:101A1000002B00D014E07B681B6843F000427B6819
:101A20001A600DE07B681B6843F040427B681A60D7
:101A300006E07B681B6843F080427B681A6000BF49
:101A4000BB685B68DAB27B689A717B689A79104BE5
:101A50001B681969FB895B010B44DB69DB789A42DF
:101A600009D90B4B1B681A69FB895B011344DB69BD
:101A7000DA787B689A717B68FA899A80BB681A6801
:101A80007B689A6000BF1C37BD465DF8047B7047D9
:101A9000300000203C00002080B582B000AF03463B
:101AA000FB71FB791846FFF7D1FDFB79054A01214F
:101AB000D154FB791846FFF707FF00BF0837BD4632
:101AC00080BD00BF3400002080B483B000AF00238D
:101AD000FB801DE000237B710EE0FB88234A52F857
:101AE00023107A7913465B0013449B000B440022B9
:101AF0001A707B7901337B711D4B1B685A69FB8817
:101B000013441B787A799A42E7D3FB880133FB8030
:101B1000FB88042BDED900237B801DE0144B1B685F
:101B20001A697B885B0113449B7C002B11D1104BFD
:101B30001B681A697B885B0113449B8A19460C4B0E
:101B40001B681A697B885B0113445B68094A42F889
:101B500021307B8801337B807B882D2BDED900BF31
:101B60000C37BD465DF8047B704700BF3C04FE1F88
:101B7000300000203C00002080B586B000AF034656
:101B8000B9607A60FB810123FB75184B1B689B6869
:101B90001A68FB891B0113445B887B820023BB828C
:101BA00017E0124B1B689B681A68FB891B011344E2
:101BB0005A68BB8A5B0013441B883B823B8A1846E9
:101BC000B9687A6800F014F80346FB75BB8A0133E4
:101BD000BB82BA8A7B8A9A4202D2FB7D012BE0D07B
:101BE000FB7D18461837BD4680BD00BF3000002081
:101BF00080B487B000AF0346B9607A60FB810123EF
:101C0000FB75514B1B68D968FA8913469B00134436
:101C1000DB000B449B683B614B4B1B68D968FA891E
:101C200013469B001344DB000B445A68BB685A40C0
:101C30003B691340002B40F08080BB6823F060417B
:101C4000414B1B68D868FA8913469B001344DB009C
:101C500003441B6A994270D3BB6823F060413A4B3E
:101C60001B68D868FA8913469B001344DB000344C1
:101C70005B6A994261D8344B1B68D968FA8913466C
:101C80009B001344DB000B441B7B052B54D801A2A3
:101C900052F823F0AD1C0000C11C0000D71C00004E
:101CA000F31C0000071D0000231D0000BB68002B73
:101CB00005DA0023FB757B68FA891A803DE03CE079
:101CC000BB68B3F1404F05D30023FB757B68FA89ED
:101CD0001A8032E031E0BB68002B09DABB68B3F14F
:101CE000404F05D20023FB757B68FA891A8024E0F7
:101CF00023E0BB68002B05DB0023FB757B68FA89BA
:101D00001A801AE019E0BB68002B09DBBB68B3F14D
:101D1000804F05D30023FB757B68FA891A800CE09D
:101D20000BE0BB68B3F1804F05D20023FB757B68E5
:101D3000FA891A8001E000E000BFFB7D18461C37DD
:101D4000BD465DF8047B70473000002090B583B03D
:101D500000AF03463960FB80134B1B68D968FA88D3
:101D600013469B001344DB000B449B69002B17D0E8
:101D70000D4B1B68D968FA8813469B001344DB009F
:101D80000B449C69084B1B68D968FA8813469B0072
:101D90001344DB000B44DB691B8818463968A047F5
:101DA00000BF0C37BD4690BD3000002080B588B024
:101DB00000AF03463960FB800123FB770123BB772B
:101DC0003A4B1B681A69FB885B011344DB89BB83B0
:101DD000364B1B689B685A68BB8BDB0013441B782F
:101DE000FB76FB7E324AD35C022B53D1FB7E314A19
:101DF000D35C032B47D1FA8807F10C0310463968EE
:101E00001A46FFF7CFFD294B1B685A68FB7EDB00A3
:101E100013445B78BB76BB7E274ADB0013445B68C8
:101E2000224A126892685168BA8BD2000A445268FA
:101E3000118807F10C020846114698470346BB7704
:101E4000BB7F002B02D10023FB771BE0BB7F022B63
:101E500015D107F10C031846FFF75AFC0346FB7730
:101E6000FB7F002B0ED13B685B68BA7C934209D99B
:101E70003C20002105223E2336F04AF910E00123E0
:101E8000FB770DE00CE03C2000210522462336F0D4
:101E90003FF905E03C2000210522462336F038F9C1
:101EA000FB7F18462037BD4680BD00BF30000020B4
:101EB0004800002040000020982D040080B582B02A
:101EC00000AF0346FB71FB7918460221FEF706FFBF
:101ED000FB7918460321FEF7EDFF00BF0837BD462A
:101EE00080BD00BF80B483B000AF03460A46FB71DB
:101EF0001346BB7100BF0C37BD465DF8047B7047CD
:101F000080B584B000AF7860244A7B68136000F02D
:101F100075FD00F0E9FD0023FB8108E0FB89FA89EB
:101F20001F49895C1F4AD154FB890133FB81FB891E
:101F3000012BF3D90023FB810AE0FB891A4A002117
:101F4000D154FB89194A0021D154FB890133FB810B
:101F5000FB89032BF1D90023FB8107E0FB89144A9D
:101F6000002102F82310FB890133FB81FB89012B3F
:101F7000F4D90023FB8107E0FB890E4A002122F8F7
:101F80001310FB890133FB81FB891C2BF4D90A4B0D
:101F900001221A7000BF1037BD4680BD58000020D6
:101FA00080410400A81F0020202B002054000020A6
:101FB000242B00202C2B00205000002080B584B062
:101FC00000AF78600B46FB700023FB8120E0FB89AB
:101FD000DB089BB21A467B6813441B781A46FB89C0
:101FE00003F0070342FA03F3FB72FB7A03F00103E9
:101FF000FB72FB7A012B04D1FB89184A0121D154D1
:1020000003E0FB89154A0021D154FB890133FB8190
:10201000FB89032BDBD90023BB8108E0BA89FB785D
:102020001046194603F0EEFABB890133BB81BB8928
:10203000112BF3D90023BB8108E0BA89FB78104645
:10204000194606F0D9FEBB890133BB81BB89212B20
:10205000F3D900BF1037BD4680BD00BF202B002044
:1020600080B586B000AF786000237B740023FB82CC
:1020700020E0FB8ADB089BB21A467B6813441B787E
:102080001A46FB8A03F0070342FA03F33B743B7CD6
:1020900003F001033B743B7C012B04D1FB8A394ADA
:1020A0000121D15403E0FB8A364A0021D154FB8A36
:1020B0000133FB82FB8A032BDBD90023BB8259E06F
:1020C000314B1B681968BA8A13461B0113449B00E5
:1020D0000B441B89FB81FB89002B48D000237B82AA
:1020E00018E0294B1B681968BA8A13461B01134470
:1020F0009B000B44DA687B8A5B0013441B88BB811E
:10210000BB89204AD35C012B01D101237B747B8ADC
:1021100001337B827A8AFB899A4202D27B7C002B34
:10212000DFD07B7C012B11D1BB8A184A1B011344E1
:102130005B78002B1BD1BB8A144A1B01134401227C
:102140005A70BB8A184603F0E9FA10E0BB8A0F4ABE
:102150001B0113445B78012B09D1BB8A0B4A1B017D
:10216000134400225A70BB8A184603F061FBBB8AF5
:102170000133BB82BB8A112BA2D900BF1837BD46E1
:1021800080BD00BF5400002058000020AC1F00207C
:1021900080B485B000AF78600B467B8013467B70BF
:1021A0000123FB73FA7B7B8803F0070302FA03F336
:1021B000FB737B78012B0ED17B88DB089AB211462A
:1021C0007B680B4411467A680A441178FA7B0A430B
:1021D000D2B21A700FE07B88DB089AB211467B6896
:1021E0000B4411467A680A441178FA7BD243D2B282
:1021F0000A40D2B21A7000BF1437BD465DF8047BA6
:10220000704700BF80B582B000AF274B1B78012B11
:1022100045D10023FB803FE0FB88244A1B01134487
:102220001B78012B35D1FB88204A1B01134408334E
:102230005B78012B1ED1FB88184603F05DFCFB8800
:102240001A4A1B011344083300225A70184B1B68AA
:102250001968FA8813461B0113449B000B4493F83A
:102260004030012B06D1FB88104A1B011344083370
:1022700001221A70FB880D4A1B0113445B78012B65
:1022800007D1FB88184600F0ADFCFB88184600F02B
:1022900085FDFB880133FB80FB88112BBCD900BF77
:1022A0000837BD4680BD00BF50000020AC1F002095
:1022B0005800002080B582B000AF7D4B1B78012B09
:1022C00040F0F1800023FB80E9E0FA887949134669
:1022D0005B001344DB000B441B78012B40F0DC80D7
:1022E00000237B7100233B71FA88724913465B001F
:1022F0001344DB000B445B78012B0CD1FB881846A0
:1023000006F08CFFFA886B4913465B001344DB0030
:102310000B4400225A70FA88664913465B00134446
:10232000DB000B440833DB88002B40D0FA88F988A7
:1023300060480B465B000B44DB0003440833DB883A
:10234000013B98B25B4913465B001344DB000B442E
:1023500008330246DA80FA88564913465B00134474
:10236000DB000B440833DB88002B20D1FB881846A8
:1023700006F0D0FFFA884F4913465B001344DB0098
:102380000B44083300225A80FA884A4913465B00FE
:102390001344DB000B44083300229A80FA88454935
:1023A00013465B001344DB000B440022DA70FA880A
:1023B000404913465B001344DB000B44DB88002BD1
:1023C0001ED0FA88F9883B480B465B000B44DB00C3
:1023D0000344DB88013B98B2364913465B00134443
:1023E000DB000B440246DA80FA88324913465B0070
:1023F0001344DB000B44DB88002B01D001237B71ED
:10240000FA882C4913465B001344DB000B44083365
:102410001B78012B0DD0032B14D0002B00D01AE019
:10242000FA887B791046194606F0F0FF03463B71A7
:1024300011E0FA887B791046194607F045F9034602
:102440003B7108E0FA887B791046194607F086F858
:1024500003463B7100BF3B79012B16D1164B1B681D
:102460005A68FB88542101FB03F313441B7B012BA7
:102470000BD1FA880F4913465B001344DB000B4471
:10248000DB78012B01D100233B713B79012B03D178
:10249000FB88184600F074FDFB880133FB80FB8845
:1024A000212B7FF612AF00BF0837BD4680BD00BFAD
:1024B00050000020F81800205800002080B582B09D
:1024C00000AF124B1B78012B1CD10023BB8006E010
:1024D000BB88184600F0D6FEBB880133BB80BB88A2
:1024E000032BF5D90023FB8009E0FB88084A1B0178
:1024F0001344083300221A70FB880133FB80FB88E9
:10250000112BF2D900BF0837BD4680BD5000002016
:10251000AC1F002080B588B000AF03463960FB8057
:102520000123FB77FB88123B7B837A8B4049134660
:102530005B001344DB000B449B883B833D4B1B68D3
:102540005A687B8B542101FB03F313441B8FFB82DE
:102550007A8B374913465B001344DB000B441B782E
:10256000012B5CD13A8B3B685B689A425BD80023B5
:10257000BB830CE03B681A68BB8B1344F98ABA8BA7
:102580000A442D498A5C1A70BB8B0133BB83BA8B1A
:102590003B8B9A42EED33A8B3B685A603B680022F1
:1025A0009A60244B1B685A687B8B542101FB03F310
:1025B00013449B68002B16D0FB8A1F4A1344BB6050
:1025C0003B8BFB6000233B611A4B1B685A687B8B7B
:1025D000542101FB03F313449B68F98807F10802B7
:1025E000084611469847134B1B685A687B8B542149
:1025F00001FB03F3134493F84630022B03D17B8B8A
:10260000184606F01DFD7A8B094913465B001344FA
:10261000DB000B440122DA700023FB7703E07B8BA5
:10262000184607F095F9FB7F18462037BD4680BD58
:10263000F818002058000020881D002080B586B0C2
:1026400000AF03463960FB80574B1B681968FA8856
:1026500013461B0113449B000B44DB6ABB82524BA5
:102660001B681968FA8813461B0113449B000B442E
:102670001B6B9AB2BB8A13447B82FB884B4A1B01BB
:1026800013441B78012B40F08A803B685A68BB8A50
:102690009A42C0F084803B685A687B8A9A427ED80E
:1026A000FB88424A1B0113445B78012B04D1FB8851
:1026B0001846396803F034F93B4B1B681968FA88EF
:1026C00013461B0113449B000B449B6B002B57D0FC
:1026D000354B1B681968FA8813461B0113449B008D
:1026E0000B449B6B9B68FB602F4B1B681968FA8837
:1026F00013461B0113449B000B449B6B1B79FB721D
:102700003B681B68FA68D20892B213441B78BB720C
:10271000BB7AFA68D2B202F00701FA7A0A44C2F12F
:1027200008029340BB72BB7AFA7AC2F108021341E5
:10273000BB721D4B1B681968FA8813461B011344B2
:102740009B000B44DB6B002B09D0FA88BB7A104648
:1027500019463A6803F0F8FB0346FB7517E0FA8860
:10276000BB7A1046194603F017FB0346FB75FB7D49
:10277000012B0CD1FB881846396803F0A9FB06E051
:102780000123FB75FB881846396803F0A1FBFB7D2C
:10279000012B04D1FB881846396800F011FD00BFF9
:1027A0001837BD4680BD00BF58000020AC1F002078
:1027B00080B483B000AF03460A46FB8013467B71AA
:1027C00000BF0C37BD465DF8047B704780B584B010
:1027D00000AF0346FB800023FB73FB88123BBB81E9
:1027E000BA89634913465B001344DB000B441B7832
:1027F000012B40F0B080BA895D4913465B00134459
:10280000DB000B4408335B88002B36D0BA89B989CA
:1028100057480B465B000B44DB00034408335B88DE
:10282000013B98B2524913465B001344DB000B4452
:10283000083302465A80BA894D4913465B00134457
:10284000DB000B4408335B88002B22D10123FB7390
:10285000BA89474913465B001344DB000B44083335
:102860000022DA80BA89424913465B001344DB0038
:102870000B44083300229A800BE00123FB73BA89D2
:102880003B4913465B001344DB000B440833002232
:10289000DA80FB7B012B23D1364B1B685A68BB893E
:1028A000542101FB03F313449B79FB72FB7A012B48
:1028B0000DD1BB89184606F0B1FCBA892C491346E4
:1028C0005B001344DB000B4400225A7008E0BA8915
:1028D000274913465B001344DB000B4401225A7066
:1028E000244B1B685A68BB89542101FB03F3134432
:1028F00093F84630002B03D1BB89184606F0A0FBA5
:102900001C4B1B685A68BB89542101FB03F3134419
:10291000DB6C002B1FD1174B1B685A68BB895421F5
:1029200001FB03F313449B6C1B78022B13D1BA8970
:10293000104B1B685968BB89542000FB03F30B4400
:10294000B3F850000A4913465B001344DB000B4404
:1029500008330246DA80BA89054913465B001344FE
:10296000DB000B440022DA7000BF1037BD4680BD8B
:10297000F81800205800002080B483B000AF034650
:102980000A46FB8013467B7100BF0C37BD465DF8DD
:10299000047B704780B487B000AFB9607A603B6059
:1029A0000346FB810123FB75FB7D18461C37BD46A2
:1029B0005DF8047B704700BF80B487B000AF03466A
:1029C000B9607A60FB810123FB75FB7D18461C37DB
:1029D000BD465DF8047B704780B487B000AFB96036
:1029E0007A603B600346FB810123FB75FB7D184643
:1029F0001C37BD465DF8047B704700BFB0B483B0A0
:102A000000AF0023FB8013E0FA88FB882E491201F7
:102A100011442E4A1B011A440B46146850689168F1
:102A2000D2681C6058609960DA60FB880133FB80D3
:102A3000FB88112BE8D90023FB801DE0F988FA8878
:102A400023480B465B000B44DB0018442149134626
:102A50005B001344DB00CA18034610685168956890
:102A6000D468186059609D60DC6010695169186114
:102A70005961FB880133FB80FB88212BDED90023C1
:102A8000FB8008E0FB88FA881349895C134AD1541B
:102A9000FB880133FB80FB88B3F5037FF2D300236F
:102AA000FB8008E0FB88FA880D49895C0D4AD15407
:102AB000FB880133FB80FB88D72BF3D900BF0C3791
:102AC000BD46B0BC704700BFAC1F00208841040069
:102AD000F8180020A8420400DC3D0400881D0020F6
:102AE000E83F0400381C002080B483B000AF00230E
:102AF000FB8008E0FB88FA882F49895C2F4AD15473
:102B0000FB880133FB80FB88002BF3D00023FB8084
:102B100011E0FB88032B05D8FB88FA882849895CDB
:102B2000284AD154FB88FA882549895C264AD15421
:102B3000FB880133FB80FB88742BEAD90023FB80E0
:102B40000AE0FB88FA88214931F81210204A22F85D
:102B50001310FB880133FB80FB88042BF1D9002381
:102B6000FB800AE0FB88FA881A4951F822201A49AA
:102B700041F82320FB880133FB80FB88022BF1D92D
:102B80000023FB800EE0F988FB88144ADB00134425
:102B9000D3E900231248C9000144C1E90023FB889E
:102BA0000133FB80FB88042BEDD900BF0C37BD46F9
:102BB0005DF8047B704700BFC0400400281C002063
:102BC000C4400400941F0020101D00203C4104005C
:102BD000981F0020484104002C1C0020584104008C
:102BE000D020002080B586B000AF0346FB80684B44
:102BF0001B681968FA8813461B0113449B000B4499
:102C00001B8B7B820023FB82B8E0614B1B68196839
:102C1000FA8813461B0113449B000B44DA69FB8AB4
:102C20005B0013441B883B82594B1B6899683A8AA6
:102C300013461B019B1A9B000B445B89FB81FB899C
:102C4000544A32F81330002B00F09580FB89FA8942
:102C5000504931F81220013A91B24E4A22F813102D
:102C6000FB894C4A32F81330002B40F08480484BEB
:102C70001B6899683A8A13461B019B1A9B000B44F8
:102C80001B7F012B52D1424B1B6899683A8A13462D
:102C90001B019B1A9B000B445B8CBB813C4B1B684C
:102CA00099683A8A13461B019B1A9B000B4493F8C0
:102CB0002630FB72FB7A0B2B1FD1354B1B689968B2
:102CC0003A8A13461B019B1A9B000B44DB8EBB8286
:102CD000F9882F4B1B681868FA8813461B011344A8
:102CE0009B000344DB6A9AB2BB8A134498B22A4A17
:102CF0000B01134402469A8010E0FB7A0C2B0BD197
:102D0000234B1B6899683A8A13461B019B1A9B0048
:102D10000B449B8CBB8201E00023BB82F97ABA8909
:102D2000BB8A084611461A4601F044FE184B1B6840
:102D300099683A8A13461B019B1A9B000B449B6AB5
:102D4000002B0AD0124B1B6899683A8A13461B0164
:102D50009B1A9B000B449B6A9847F9890C4B1B6894
:102D600098683A8A13461B019B1A9B0003441A89F0
:102D7000084B23F81120FB8A0133FB82FA8A7B8AF5
:102D80009A42FFF442AF00BF1837BD4680BD00BF76
:102D9000580000202C2B0020AC1F002080B588B0EC
:102DA00000AF0346FB80734B1B681968FA88134613
:102DB0001B0113449B000B441B8A3B830023FB83B2
:102DC000CFE06C4B1B681968FA8813461B0113444B
:102DD0009B000B445A69FB8B5B0013441B88FB82EE
:102DE000644B1B681969FA8A13465B0013441B0184
:102DF0000B445B8DBB82BB8A5F4A32F81330002BD9
:102E000000F0AC80BB8ABA8A5B4931F81220013AE3
:102E100091B2594A22F81310BB8A574A32F813303C
:102E2000002B40F09B80534B1B681969FA8A1346AC
:102E30005B0013441B010B441B8C7B824D4B1B68B6
:102E40001969FA8A13465B0013441B010B441B7C6F
:102E5000012B5ED100237B8357E0464B1B68196929
:102E6000FA8A13465B0013441B010B445A6A7B8B9E
:102E70005B0013441B883B823E4B1B689A693B8A6C
:102E80005B0113449B89FB813A4B1B689A693B8A1F
:102E90005B0113441B7C7B737B7B0B2B1CD1354B61
:102EA0001B689A693B8A5B0113449B8BBB83F9883F
:102EB000304B1B681868FA8813461B0113449B00AB
:102EC0000344DB6A9AB2BB8B134498B22B4A0B01C2
:102ED000134402469A800DE07B7B0C2B08D1254BD6
:102EE0001B689A693B8A5B011344DB89BB8301E061
:102EF0000023BB83797BFA89BB8B084611461A46AF
:102F000001F058FD7B8B01337B837A8B7B8A9A425D
:102F1000A3D3184B1B681969FA8A13465B00134444
:102F20001B010B449B69002B0AD0124B1B681969CB
:102F3000FA8A13465B0013441B010B449B699847B4
:102F4000B98A0C4B1B681869FA8A13465B00134454
:102F50001B0103449A88084B23F81120FB8B013393
:102F6000FB83FA8B3B8B9A42FFF42BAF2037BD4695
:102F700080BD00BF580000202C2B0020AC1F00207B
:102F800080B588B000AF0346FB800023FB770123A8
:102F9000BB77884B1B685A68FB88542101FB03F3FD
:102FA00013441B8FBB83FA88834913465B00134489
:102FB000DB000B449B887B837E4B1B685A68FB8835
:102FC000542101FB03F31344DB6B002B12D0FB886D
:102FD000184606F039FDFA88774913465B0013441A
:102FE000DB000B4410339B79FB77FB8801201946EB
:102FF00002F088FABB8B714A1344FB607B8B3B6108
:1030000000237B616B4B1B685A68FB88542101FBD2
:1030100003F313441B68002B12D0664B1B685A68DD
:10302000FB88542101FB03F313441B68FA88123216
:1030300091B207F10C020846114698470346BB7748
:10304000BB7F012B40F09D805A4B1B685A68FB8860
:10305000542101FB03F313441B7B012B01D10023FB
:10306000FB60FA88544913465B001344DB000B44B1
:103070000122DA704F4B1B685A68FB88542101FB10
:1030800003F313449A8D07F10C031046194606F01A
:10309000EFFF0346002B42D1FA88474913465B00F5
:1030A0001344DB000B4410339B78012B09D1FA88C1
:1030B000414913465B001344DB000B4410330022EC
:1030C0009A70FA883B4B1B685968FB88542000FBB8
:1030D00003F30B44B3F84400374913465B00134431
:1030E000DB000B440246DA80324B1B685A68FB88CF
:1030F000542101FB03F3134493F84630012B03D111
:10310000FB88184605F09CFFFA882B4913465B00A4
:103110001344DB000B44103300229A8046E0FA8807
:10312000254913465B001344DB000B440022DA7090
:10313000204B1B685A68FB88542101FB03F313449E
:10314000DB6B002B09D0FA881B4913465B00134444
:10315000DB000B441033FA7F9A71FA88154B1B6819
:103160005968FB88542000FB03F30B44B3F8440078
:10317000114913465B001344DB000B440246DA801E
:1031800015E00C4B1B685A68FB88542101FB03F3C4
:103190001344DB6B002B09D0FA88074913465B0008
:1031A0001344DB000B441033FA7F9A7100BF2037C1
:1031B000BD4680BD58000020F8180020881D002062
:1031C00080B584B000AF03463960FB800123FB73F8
:1031D0002A4B1B681968FA8813461B0113449B008D
:1031E0000B441B68002B0FD0244B1B681968FA880E
:1031F00013461B0113449B000B441B68FA881046BE
:10320000396898470346FB73FB7B012B32D11B4B7C
:103210001B681968FA8813461B0113449B000B4472
:103220009B79012B1FD1FB88154A1B0113440833DE
:1032300000225A70FB88184602F05EFC0F4B1B6898
:103240001968FA8813461B0113449B000B4493F83A
:103250004030012B0ED1FB88094A1B01134408336F
:1032600001221A7007E0FB88054A1B01134408334A
:1032700001225A7000BF1037BD4680BD58000020A3
:10328000AC1F002080B584B000AF0346FB803F4BED
:103290001B68196AFA8813465B0013449B000B44B1
:1032A0001B78FB73394B1B68196AFA8813465B005D
:1032B00013449B000B445B88BB81FB7B012B20D01C
:1032C000022B42D0002B00D05BE0304B1B6899688A
:1032D000BA8913461B019B1A9B000B449B897B8177
:1032E0007B892B4A1B01134408331B78012B07D120
:1032F000FA88BB89104600211A4600F04BF840E0DE
:103300003FE0224B1B689A69BB895B0113441B8B0E
:103310003B811E4B1B6819693A8913465B001344B5
:103320001B010B441B8D7B817B89194A1B011344B4
:1033300008331B78012B07D1FA88BB89104601217D
:103340001A4600F027F81CE01BE0104B1B68596A76
:10335000BA8913465B001344DB000B441B8A7B8154
:103360007B890B4A1B01134408331B78012B07D1BF
:10337000FA88BB89104602211A4600F00BF8FFE7D5
:1033800000BF00BF1037BD4680BD00BF5800002001
:10339000AC1F002080B588B000AF0346FB800B4611
:1033A0007B7113467B80A24B1B68196AFA8813460F
:1033B0005B0013449B000B449B88BB837B79012BF0
:1033C00000F0F080022B02D0002B75D063E1984B07
:1033D0001B68596A7A8813465B001344DB000B4470
:1033E0001B7AFB76924B1B68596A7A8813465B00FE
:1033F0001344DB000B445B8A3B830023FB8356E0D2
:103400008B4B1B68196AFA8813465B0013449B00B8
:103410000B449A68FB8B9B0013441B78FB75844B11
:103420001B68196AFA8813465B0013449B000B441F
:103430009A68FB8B9B0013445B88BB82FB7E0B2B43
:1034400013D00C2B29D17A4B1B68596A7A88134602
:103450005B001344DB000B44DB887B82388B798A6A
:10346000FA7DBB8A00F0C8FA1EE0714B1B68596AEE
:103470007A8813465B001344DB000B441B8A3B82B3
:103480003B8A6C4A1B011344DB887B82388B798A28
:10349000FA7DBB8A00F0A0FC06E0F87E398BFA7D4D
:1034A000BB8A00F001F900BFFB8B0133FB83FA8B71
:1034B000BB8B9A42A4D3EEE05D4B1B6899687A8877
:1034C00013461B019B1A9B000B4493F82630FB7696
:1034D000574B1B6899687A8813461B019B1A9B00FF
:1034E0000B445B8F3B830023FB8356E0504B1B68F0
:1034F000196AFA8813465B0013449B000B449A68D0
:10350000FB8B9B0013441B78FB75494B1B68196AA6
:10351000FA8813465B0013449B000B449A68FB8BAC
:103520009B0013445B88BB82FB7E0B2B13D00C2BC0
:1035300029D13F4B1B6899687A8813461B019B1A57
:103540009B000B449B8C7B82388B798AFA7DBB8AEB
:1035500000F052FA1EE0364B1B6899687A881346D1
:103560001B019B1A9B000B449B893B823B8A314A7F
:103570001B011344DB887B82388B798AFA7DBB8AF6
:1035800000F02AFC06E0F87E398BFA7DBB8A00F059
:103590008BF800BFFB8B0133FB83FA8BBB8B9A420A
:1035A000A4D378E0224B1B689A697B885B011344A3
:1035B0001B7CFB761E4B1B689A697B885B0113445E
:1035C000DB8B3B830023FB8360E0194B1B68196A8C
:1035D000FA8813465B0013449B000B449A68FB8BEC
:1035E0009B0013441B78FB75114B1B68196AFA8802
:1035F00013465B0013449B000B449A68FB8B9B00B3
:1036000013445B88BB82FB7E0B2B15D00C2B33D174
:10361000074B1B689A697B885B011344DB897B82BB
:10362000388B798AFA7DBB8A00F0E6F92BE000BF7F
:1036300058000020AC1F0020194B1B689A697B883A
:103640005B0113441B8BFB81154B1B681969FA89BD
:1036500013465B0013441B010B441B8D3B823B8ACA
:10366000104A1B011344DB887B82388B798AFA7DF0
:10367000BB8A00F0B1FB06E0F87E398BFA7DBB8A8D
:1036800000F012F800BFFB8B0133FB83FA8BBB8B7E
:103690009A429AD300BF00BF2037BD4680BD00BF0D
:1036A00058000020AC1F0020F0B591B002AF0446D6
:1036B000084611461A462346FB710346BB800B465B
:1036C000BB7113467B80002387F837304FF0000230
:1036D0004FF00003C7E904230023BB8600237B8649
:1036E0004FF0FF33FB6200237B62BB79012B3ED09E
:1036F000022B69D0002B00D09FE0934B1B68D96848
:103700007A881346DB009B1ADB000B441B8B7B86FD
:103710008D4B1B68D9687A881346DB009B1ADB0047
:103720000B441B8CBB86884B1B68D9687A88134670
:10373000DB009B1ADB000B44DB6AFB62824B1B68DD
:10374000D9687A881346DB009B1ADB000B4493F898
:10375000283087F82B307C4B1B68D9687A88134651
:10376000DB009B1ADB000B441B6B7B6265E0764B36
:103770001B68DA697B885B0113449B897B86724BEB
:103780001B68DA697B885B0113445B8B7B846E4B1F
:103790001B685A697B8C2C2101FB03F313441B8D9E
:1037A000BB86694B1B685A697B8C2C2101FB03F398
:1037B0001344DB69FB62644B1B68DA697B885B013D
:1037C00013445B697B6238E05F4B1B68996A7A88B7
:1037D0001346DB009B1A9B000B449B8A7B865A4B4B
:1037E0001B68996A7A881346DB009B1A9B000B447E
:1037F0009B89BB86544B1B68996A7A881346DB0009
:103800009B1A9B000B449B68FB624F4B1B68996A99
:103810007A881346DB009B1A9B000B445B7987F880
:103820002B30494B1B68996A7A881346DB009B1A38
:103830009B000B441B697B6200BFF879B9887A8EC4
:1038400007F1100301F07AF8C7E90601D7E904018E
:10385000D7E90623994208BF904208D0012387F890
:103860003730D7E90423B879798800F009FCBB8E9A
:103870001846F96A01F012FE7B6A002B13D07B6AAE
:103880009B8E1E46D7E90445F979D7E90623CDE991
:1038900000230846796A22462B4600F095FD034630
:1038A0001A462A4B9A55BA8E07F10E03104619464E
:1038B00001F052FDBB79012B4CD0022B00F08A8025
:1038C000002B00D08FE0FA89B88E97F82B1097F86C
:1038D000373000F0F9FD1C4B1B68D9687A88134615
:1038E000DB009B1ADB000B44DB8B002B2AD0BA8E4B
:1038F000174913465B001344DB000B440833DB8895
:10390000002B0AD0BA8E124913465B001344DB0029
:103910000B4408335B88012B14D9BA8E0A4B1B6801
:103920005968BB8E542000FB03F30B44B3F85000DE
:10393000074913465B001344DB000B44083302467F
:10394000DA8050E04FE000BF58000020A81F0020A0
:10395000F8180020FA89798897F837300846114618
:103960001A4600F05FFE224B1B685A697B8C2C21A3
:1039700001FB03F313441B8A002B2AD0BA8E1D4986
:1039800013465B001344DB000B440833DB88002B39
:103990000AD0BA8E174913465B001344DB000B4470
:1039A00008335B88012B14D9BA8E114B1B685968F8
:1039B000BB8E542000FB03F30B44B3F850000D49B9
:1039C00013465B001344DB000B4408330246DA80E5
:1039D00009E008E0FA89B88E97F82B1097F837308D
:1039E00000F072FD00BF00BF3C37BD46F0BD00BF18
:1039F00058000020F818002090B589B000AF0446A8
:103A0000084611461A462346FB800346BB800B46F8
:103A1000FB7013463B800023FB77FB78012B00F003
:103A2000B180022B00F05A81002B00D0C9E1A74BD6
:103A30001B68D9683A881346DB009B1ADB000B44ED
:103A40001B8C7B83A14B1B68D9683A881346DB002B
:103A50009B1ADB000B441B687B619C4B1B68D9687D
:103A60003A881346DB009B1ADB000B44DB6A3B61A0
:103A7000964B1B685A687B8B542101FB03F313445C
:103A80001B8FFB810023BB8322E0FB897A69D2086C
:103A900092B21A44BB8B13448D4AD25CF988BB8B1B
:103AA0000B448C49CB5C9A420FD00123FB77FB89F6
:103AB0007A69D20892B21A44BB8B1344F988BA8B44
:103AC0000A448449895C824AD154BB8B0133BB834D
:103AD000BA8BBB889A42D8D37B8B1846396901F0E0
:103AE000DDFC7A8B07F108031046194601F034FC1F
:103AF000764B1B68D9683A881346DB009B1ADB00BB
:103B00000B4493F828307B733A89788B797BFB7F61
:103B100000F0DAFC6D4B1B68D9683A881346DB006D
:103B20009B1ADB000B44DB8B002B2AD07A8B6A4973
:103B300013465B001344DB000B440833DB88002B87
:103B40000AD07A8B644913465B001344DB000B44B4
:103B500008335B88012B14D97A8B5C4B1B6859683E
:103B60007B8B542000FB03F30B44B3F850005A49FD
:103B700013465B001344DB000B4408330246DA8033
:103B80001FE11EE1514B1B68DA693B885B0113445E
:103B90005B8B7B814D4B1B685A697B892C2101FB18
:103BA00003F313441B8D7B83484B1B68DA693B8806
:103BB0005B0113441B687B61444B1B685A697B891A
:103BC0002C2101FB03F31344DB693B613F4B1B6872
:103BD0005A687B8B542101FB03F313441B8FFB8139
:103BE0000023BB8322E0FB897A69D20892B21A448F
:103BF000BB8B1344364AD25CF988BB8B0B443549E6
:103C0000CB5C9A420FD00123FB77FB897A69D208FB
:103C100092B21A44BB8B1344F988BA8B0A442D49DB
:103C2000895C2B4AD154BB8B0133BB83BA8BBB88D5
:103C30009A42D8D37B8B1846396901F02FFC7A8BD6
:103C400007F108031046194601F086FB3A893988C6
:103C5000FB7F084611461A4600F0E4FC1B4B1B682C
:103C60005A697B892C2101FB03F313441B8A002B27
:103C70002AD07A8B184913465B001344DB000B44AF
:103C80000833DB88002B0AD07A8B134913465B007C
:103C90001344DB000B4408335B88012B14D97A8B67
:103CA0000A4B1B6859687B8B542000FB03F30B44C1
:103CB000B3F85000084913465B001344DB000B4483
:103CC00008330246DA807CE07BE000BF5800002029
:103CD000881D0020A41F0020F81800203B4B1B6803
:103CE000996A3A881346DB009B1A9B000B449B8918
:103CF0007B83364B1B68996A3A881346DB009B1A14
:103D00009B000B441B687B61304B1B68996A3A88A7
:103D10001346DB009B1A9B000B449B683B612B4BBB
:103D20001B685A687B8B542101FB03F313441B8FE0
:103D3000FB810023BB8322E0FB897A69D20892B21F
:103D40001A44BB8B1344224AD25CF988BB8B0B44C8
:103D50002049CB5C9A420FD00123FB77FB897A691B
:103D6000D20892B21A44BB8B1344F988BA8B0A4426
:103D70001849895C164AD154BB8B0133BB83BA8B7B
:103D8000BB889A42D8D37B8B1846396901F086FBF1
:103D90007A8B07F108031046194601F0DDFA0B4B48
:103DA0001B68996A3A881346DB009B1A9B000B44F8
:103DB0005B797B733A89788B797BFB7F00F084FB9E
:103DC00000BF00BF2437BD4690BD00BF5800002093
:103DD000881D0020A41F002090B58BB002AF0446C0
:103DE000084611461A462346FB800346BB800B4615
:103DF000FB7013463B800023FB75FB78012B00F022
:103E00008180022B00F0F180002B00D030E19A4B32
:103E10001B68D9683A881346DB009B1ADB000B4409
:103E20001B8CFB83FB8B3B81934B1B68D9683A88C7
:103E30001346DB009B1ADB000B441B68FB608E4BB8
:103E40001B68D9683A881346DB009B1ADB000B44D9
:103E5000DB6A3B61F888B98807F1170301933B6976
:103E6000009307F108030CCB00F0D0FC0346BB83A2
:103E7000814B1B68D9683A881346DB009B1ADB002C
:103E80000B4493F82830FB76FB7DF88BF97EBA8BD8
:103E900000F01AFB784B1B68D9683A881346DB00A0
:103EA0009B1ADB000B44DB8B002B2AD0FA8B734967
:103EB00013465B001344DB000B440833DB88002B04
:103EC0000AD0FA8B6D4913465B001344DB000B44A8
:103ED00008335B88012B14D9FA8B674B1B68596830
:103EE000FB8B542000FB03F30B44B3F850006349F1
:103EF00013465B001344DB000B4408330246DA80B0
:103F0000B6E0B5E05C4B1B68DA693B885B011344A3
:103F10005B8B3B83584B1B685A693B8B2C2101FB05
:103F200003F313441B8DFB83FB8B3B81524B1B68BC
:103F3000DA693B885B0113441B68FB604E4B1B68CE
:103F40005A693B8B2C2101FB03F31344DB693B6172
:103F5000F888B98807F1170301933B69009307F1CB
:103F600008030CCB00F052FC0346BB83FB7D398871
:103F7000BA8B084611461A4600F054FB3E4B1B68AC
:103F80005A693B8B2C2101FB03F313441B8A002B42
:103F90002AD0FA8B394913465B001344DB000B44EB
:103FA0000833DB88002B0AD0FA8B344913465B00B8
:103FB0001344DB000B4408335B88012B14D9FA8BC4
:103FC0002D4B1B685968FB8B542000FB03F30B44FB
:103FD000B3F85000294913465B001344DB000B443F
:103FE00008330246DA8043E042E0234B1B68996ABB
:103FF0003A881346DB009B1A9B000B449B89FB838A
:10400000FB8B3B811C4B1B68996A3A881346DB008B
:104010009B1A9B000B441B68FB60174B1B68996A3B
:104020003A881346DB009B1A9B000B449B683B615C
:10403000F888B98807F1170301933B69009307F1EA
:1040400008030CCB00F0E2FB0346BB830A4B1B6862
:10405000996A3A881346DB009B1A9B000B445B79F4
:10406000FB76FB7DF88BF97EBA8B00F02DFA00BF52
:1040700000BF2437BD4690BD58000020F81800202E
:10408000F0B593B004AFC7E900230346FB730B46BA
:10409000BB810023FB8600233B63002387F82F307E
:1040A000012387F82C30FB7B012B3FD0022B73D0F0
:1040B000002B00D0ABE0784B1B68D968BA89134657
:1040C000DB009B1ADB000B441B8CFB86724B1B68CE
:1040D000D968BA891346DB009B1ADB000B441B68C6
:1040E0003B636D4B1B68D968BA891346DB009B1A8A
:1040F000DB000B441B7F87F82F30674B1B68D968A8
:10410000BA891346DB009B1ADB000B449B7D87F8C2
:104110002E30614B1B68D968BA891346DB009B1AA5
:10412000DB000B441B7987F82D3070E05A4B1B687D
:10413000DA69BB895B0113445B8B7B85564B1B683B
:104140005A697B8D2C2101FB03F313441B8DFB86E5
:10415000514B1B68DA69BB895B0113441B683B63E5
:104160004D4B1B68DA69BB895B0113441B7C87F8E4
:104170002F30494B1B68DA69BB895B0113449B7A7A
:1041800087F82E30444B1B68DA69BB895B01134406
:104190001B7987F82D303AE03F4B1B68996ABA8942
:1041A0001346DB009B1A9B000B449B89FB863A4B12
:1041B0001B68996ABA891346DB009B1A9B000B4463
:1041C0001B683B63344B1B68996ABA891346DB0052
:1041D0009B1A9B000B445B7E87F82F302E4B1B688D
:1041E000996ABA891346DB009B1A9B000B441B7922
:1041F00087F82E30284B1B68996ABA891346DB0072
:104200009B1A9B000B441B7E87F82D3000BF224B6E
:104210001B685A68FB8E542101FB03F313441B8F68
:104220003B8597F82F30002B3AD1D7E90023134371
:1042300017D03B8D3A6BD1088AB213443A8D89B2BC
:104240000A441649895C97F82C003A6BD2B202F006
:10425000070200FA02F2D2B20A43D1B20F4AD15495
:10426000ABE03B8D3A6BD1088AB213443A8D89B2E8
:104270000A440A49895C97F82C003A6BD2B202F0E2
:10428000070200FA02F2D2B2D243D2B20A40D1B24D
:10429000024AD15492E000BF58000020881D00203F
:1042A000D7E90023C7E908233B6BDBB203F0070122
:1042B000D7E90023A1F12006C1F1200003FA01F59E
:1042C00002FA06F6354322FA00F0054302FA01F439
:1042D000C7E9004597F82D203B6BDBB203F00703DD
:1042E0001344013BDB08DBB20133FB77FB7F012B7F
:1042F00043D13B8D3A6BD1088AB213443A8D89B2CF
:104300000A443049895C3A6BD2B202F00702C2F12A
:1043100008021046FF22C240D0B23A6BD2B202F07D
:10432000070497F82D2022441446FF22A240D2B25F
:104330000243D2B20A40D1B2224AD1543B8D3A6BE9
:10434000D1088AB213443A8D89B20A441D49895C66
:104350003A6BD2B202F0070097F82D200244C2F166
:1043600008021046FF22C240D0B23A780240D2B2D0
:104370000A43D1B2134AD1541FE0FB7F012B1CD951
:10438000FB7F092B19D8FB7F3B7497F82E307B7489
:104390003B8D7B823B6B7B6197F82D303B76D7E979
:1043A0000023CDE90023D7E90823CDE9022307F153
:1043B000100393E8070000F0A1FB00BF3C37BD46A7
:1043C000F0BD00BF881D002080B588B002AFB96085
:1043D000C7E900230346FB730023BB75BB681B784A
:1043E000FB75FB7D062B69D801A252F823F000BFB4
:1043F0000D440000934400003B44000013440000BF
:10440000BD4400007B440000634400000123BB75F1
:1044100055E0BB68D3E90201D7E9002300EA0200B6
:1044200001EA0301BB68D3E90423994208BF904223
:1044300002D10123BB7542E041E0BB68D3E9020130
:10444000D7E9002300EA020001EA0301BB68D3E9CF
:104450000423994208BF904202D00123BB752EE08D
:104460002DE0FA7BBB68009307F116030193104619
:10447000D7E9002300F02EFD21E0FA7BBB68009312
:1044800007F1160301931046D7E9002300F0BCFDA5
:1044900015E0D7E90001D7E9082380EA020081EAA4
:1044A0000301BB68D3E9022302EA000203EA010325
:1044B000134302D00123BB7501E000E000BFBB7DC8
:1044C00018461837BD4680BD90B482B000AF044690
:1044D000084611461A462346FB8003467B710B466D
:1044E0007B8013463B71FA884D4913465B001344A9
:1044F000DB000B4408331B78002B0AD0FA884849AC
:1045000013465B001344DB000B4408331B78012B7C
:104510006CD17B79013B032B66D801A252F823F0C2
:10452000314500005B4500008D450000BF4500009F
:10453000FA883B4913465B001344DB000B44083305
:1045400000229A80FA88364913465B001344DB0048
:104550000B4408337A885A8047E03B79012B14D109
:10456000FA882F4913465B001344DB000B440833E1
:1045700000229A80FA882A4913465B001344DB0024
:104580000B4408337A885A802FE02EE03B79012BC8
:1045900014D1FA88224913465B001344DB000B4414
:1045A000083300229A80FA881D4913465B001344A1
:1045B000DB000B44083301225A8016E015E0FA882C
:1045C000174913465B001344DB000B4408330022F9
:1045D0009A80FA88124913465B001344DB000B44AF
:1045E000083301225A8000E000BF13E0FA880C492A
:1045F00013465B001344DB000B44083300229A800F
:10460000FA88074913465B001344DB000B44083368
:1046100000225A8000BF0837BD4690BC704700BFDB
:10462000F818002080B485B000AF0346FB800B462D
:10463000BB801346FB70734B1B68DA69FB885B0118
:1046400013445B8BFB816F4B1B685A69FB892C21E0
:1046500001FB03F313441B8DBB816A4B1B685A6932
:10466000FB892C2101FB03F313441B7EFB72BA89E7
:10467000654913465B001344DB000B4408331B7889
:10468000002B0BD0BA89604913465B001344DB0052
:104690000B4408331B78012B40F09A80FB7A013BD6
:1046A000032B00F2938001A252F823F0BD460000D4
:1046B000E746000071470000A3470000BA8952494D
:1046C00013465B001344DB000B44083300229A803E
:1046D000BA894D4913465B001344DB000B44083391
:1046E000BA885A8073E0474B1B68DA69FB885B0124
:1046F00013441B7E012B22D1424B1B68DA69FB88D5
:104700005B0113445B7EBB72FB78012B2FD1BB7A1C
:10471000022B2CD1BA893C4913465B001344DB00C1
:104720000B44083300229A80BA89374913465B004C
:104730001344DB000B440833BA885A8047E0FB7807
:10474000012B14D1BA89304913465B001344DB00B6
:104750000B44083300229A80BA892B4913465B0028
:104760001344DB000B440833BA885A802FE02EE054
:10477000FB78012B14D1BA89234913465B001344FB
:10478000DB000B44083300229A80BA891E49134685
:104790005B001344DB000B44083301225A8016E00F
:1047A00015E0BA89184913465B001344DB000B443B
:1047B000083300229A80BA89134913465B001344D8
:1047C000DB000B44083301225A8000E000BF13E0F5
:1047D000BA890D4913465B001344DB000B440833D0
:1047E00000229A80BA89084913465B001344DB0013
:1047F0000B44083300225A8000BF1437BD465DF8D1
:10480000047B704758000020F818002082B080B563
:1048100084B000AF07F1180E8EE80C000346FB8051
:104820000B46BB807B6A00221A703B8B19463F4ABD
:104830000B465B000B44DB0013449A883C4B1B681F
:1048400059683B8B1846542303FB00F30B441B6B46
:104850009BB2D31ABB81364B1B685A683B8B1946F7
:10486000542303FB01F313441B8F7B810023FB8143
:1048700023E07B89FA69D20892B21A44FB89134477
:104880002C4AD25CF988FB890B442B49CB5C9A42B9
:1048900010D07B6A01221A707B89FA69D20892B221
:1048A0001A44FB891344F988FA890A442249895C2D
:1048B000204AD154FB890133FB81FA89BB889A4293
:1048C000D7D3BA88BB899A421AD07B6A01221A7060
:1048D0003B8B1946164B1B685A683B8B1846542372
:1048E00003FB00F313441B6B9AB2BB88134498B2CA
:1048F0000E4A0B465B000B44DB00134402469A80D1
:104900003A8B3B6A1046194600F0C8FD3A8B07F116
:1049100008031046194600F01FFD3B891846103762
:10492000BD46BDE8804002B0704700BFF8180020C7
:1049300058000020881D0020A41F002080B487B0EC
:1049400000AF7B600346FB730B46BB8113467B8144
:104950004FF000024FF00003C7E90423FB7B062B56
:1049600002D00A2B00D017E0BB89104AD35CDAB220
:104970004FF000037968C1E900237B890C4AD35CBE
:10498000DAB24FF00003C7E904237B89BA890749EB
:10499000895C074AD15400BFD7E904231046194661
:1049A0001C37BD465DF8047B704700BFA41F002084
:1049B000101D002080B485B000AF0346FB710B468C
:1049C000BB8013467B80FB790C2B5FD801A252F889
:1049D00023F000BF094A0000614A0000734A00004A
:1049E0004F4A0000614A0000734A0000414A00003B
:1049F0004F4A0000614A0000734A0000414A00002B
:104A0000174A0000174A0000BB88BA882349895C0E
:104A1000234AD1543BE00023FB810CE0BA88FB8998
:104A20001344B988FA890A441E49895C1E4AD15444
:104A3000FB890133FB81FA897B889A42EED326E019
:104A4000BB88BA881749895C174AD1541FE0BB88D4
:104A5000BA88164931F81210154A22F8131016E0D8
:104A6000BB88BA88134951F82220134941F8232002
:104A70000DE0B988BB88114ADB001344D3E9002359
:104A80000F48C9000144C1E9002300E000BF00BF96
:104A90001437BD465DF8047B704700BFC04004007A
:104AA000281C0020C4400400101D00203C410400CC
:104AB000981F0020484104002C1C0020584104008D
:104AC000D020002080B485B000AF03460A46FB71B9
:104AD0001346BB80BB88FB81FB79002B03D1FB898C
:104AE000013BFB8102E0FB890133FB81FB89184616
:104AF0001437BD465DF8047B704700BF2DE9F04FC9
:104B000089B000AF07F10C0383E807003B69BB6184
:104B10007B7B002B40F0ED800023FB77E3E0FB7F05
:104B2000002B2AD1FB891946BB69DA0893B20B44E2
:104B3000F98992B20A44AB49895CBA69D2B202F0EF
:104B40000702C2F108021046FF22C240D2B20A4058
:104B5000D1B2A44AD154FB891946BB69DA0893B291
:104B60000B44F98992B20A449E49895C97F848201F
:104B70000A43D1B29B4AD154B2E03B7B1A46FB7F39
:104B800001339A4240F09280FB7F082B3DD1FB8994
:104B90001946BB69DA0893B20B44083BF98992B213
:104BA0000A44083A8F49895CBA69D2B202F0070216
:104BB000387D0244403A1046FF228240D2B20A4079
:104BC000D1B2884AD154FB891946BB69DA0893B23D
:104BD0000B44083BF98992B20A44083A8149895C3E
:104BE00097F85000BA69D2B202F007023C7D224425
:104BF000C2F148021446FF22E240D2B20240D2B2D1
:104C00000A43D1B2774AD1546AE0D7E912234FEA76
:104C1000122A4AEA036A4FEA132BC7E912ABFB894F
:104C20001A46BB69D9088BB21A44FB7FD31AFA899A
:104C300010468AB28118FA7F8A1A6A49895CBA6971
:104C4000D2B202F00702387D1044FA7FD200821AF5
:104C50001046FF228240D2B20A40D1B2614AD154FA
:104C6000FB891A46BB69D9088BB21A44FB7FD31A59
:104C7000FA8910468AB28118FA7F8A1A5949895CE2
:104C800097F848003A7BD400BA69D2B202F0070222
:104C90003D7D2A44A21A1446FF22E240D2B20240CD
:104CA000D2B20A43D1B24F4AD15419E0D7E9122304
:104CB000110A3960396841EA036139601B0A7B6077
:104CC000D7E90023C7E91223FB891A46BB69DB0831
:104CD0009BB21A44FB7FD31A97F84810414AD1542B
:104CE000FB7F0133FB773B7BFA7F9A42FFF417AFE0
:104CF000E9E00023FB77E0E0FB7F002B2AD1FB8972
:104D00001946BB69DA0893B20B44F98992B20A4496
:104D10003449895CBA69D2B202F00702C2F10802D2
:104D20001046FF22C240D2B20A40D1B22D4AD1541D
:104D3000FB891946BB69DA0893B20B44F98992B230
:104D40000A442849895C97F848200A43D1B2254A89
:104D5000D154AFE03B7B1A46FB7F01339A4240F0CF
:104D60009380FB7F082B3FD1FB891946BB69DA088A
:104D700093B20B440833F98992B20A4408321949B4
:104D8000895CBA69D2B202F00702387D0244403A27
:104D90001046FF228240D2B20A40D1B2114AD15409
:104DA000FB891946BB69DA0893B20B440833F989C9
:104DB00092B20A4408320B49895C97F85000BA69EC
:104DC000D2B202F007023E7D3244C2F148021646DA
:104DD000FF22F240D2B20240D2B20A43D1B2014A1B
:104DE000D15467E0881D0020D7E91223140A44EA51
:104DF00003641D0AC7E91245FB891A46BB69D90835
:104E00008BB21A44FB7F1344FA8910468AB2811888
:104E1000FA7F0A442E49895CBA69D2B202F00702CD
:104E2000387D1044FA7FD200821A1046FF22824059
:104E3000D2B20A40D1B2264AD154FB891A46BB6984
:104E4000D9088BB21A44FB7F1344FA8910468AB200
:104E50008118FA7F0A441E49895C97F848003A7B1A
:104E6000D600BA69D2B202F0070297F814E0724491
:104E7000B21A1646FF22F240D2B20240D2B20A4320
:104E8000D1B2134AD15415E0D7E912234FEA1228C0
:104E900048EA03684FEA1329C7E91289FB891A46D1
:104EA000BB69DB089BB21A44FB7F134497F8481098
:104EB000074AD154FB7F0133FB773B7BFA7F9A4251
:104EC000FFF41AAF00BF2437BD46BDE8F08F00BF26
:104ED000881D002080B485B000AF0146C7E90023DB
:104EE0000B46FB73FB6900221A70FB7B033B072B0D
:104EF00000F2828001A252F823F000BF4B4F000065
:104F0000794F00009F4F00001D4F0000CB4F000065
:104F1000CB4F0000CB4F0000CB4F00003978BB696E
:104F2000D3E90623D3B24AB25BB29A420CDC397899
:104F3000BB69D3E90823D3B24AB25BB29A4203DB1E
:104F4000FB6901221A7058E057E03988BB69D3E940
:104F5000062393B20AB21BB29A420CDC3988BB69B1
:104F6000D3E9082393B20AB21BB29A4203DBFB696E
:104F700001221A7041E040E03968BB69D3E9062399
:104F8000134699420ADC3968BB69D3E90823134602
:104F9000994203DBFB6901221A702EE02DE0D7E96C
:104FA0000023B969D1E90601904271EB03030BDBE1
:104FB000D7E90023B969D1E9080182428B4103DBBB
:104FC000FB6901221A7018E017E0BB69D3E90601FA
:104FD000D7E90023994208BF90420CD3BB69D3E9BB
:104FE0000823D7E90001994208BF904203D3FB6927
:104FF00001221A7001E000E000BF00BF1437BD4677
:105000005DF8047B704700BF80B485B000AF0146F7
:10501000C7E900230B46FB73FB6900221A70FB7B78
:10502000033B072B00F2828001A252F823F000BF5D
:105030007F500000AD500000D350000051500000E0
:10504000FF500000FF500000FF500000FF50000024
:105050003978BB69D3E90623D3B24AB25BB29A422C
:1050600008DC3978BB69D3E90823D3B24AB25BB212
:105070009A4203DAFB6901221A7058E057E0398836
:10508000BB69D3E9062393B20AB21BB29A4208DC89
:105090003988BB69D3E9082393B20AB21BB29A429A
:1050A00003DAFB6901221A7041E040E03968BB690C
:1050B000D3E906231346994206DC3968BB69D3E974
:1050C00008231346994203DAFB6901221A702EE085
:1050D0002DE0D7E90023B969D1E90601904271EBCF
:1050E000030307DBD7E90023B969D1E9080182424C
:1050F0008B4103DAFB6901221A7018E017E0BB69E3
:10510000D3E90601D7E90023994208BF904208D3AA
:10511000BB69D3E90823D7E90001994208BF90424F
:1051200003D2FB6901221A7001E000E000BF00BF5A
:105130001437BD465DF8047B704700BF80B489B06A
:1051400000AF0346FB800123FB77814B1B685A6845
:10515000FB88542101FB03F31344DB6C002B00F0AC
:10516000F0800023FB777A4B1B685A68FB88542138
:1051700001FB03F313449B8B3B830023BB832EE093
:10518000734B1B685A68FB88542101FB03F31344DB
:105190001A6ABB8B5B0013441B88FB826C4B1B6839
:1051A000D968FA8A1346DB009B1ADB000B441B6BA1
:1051B000002B11D0664B1B68D968FA8A1346DB00B6
:1051C0009B1ADB000B441B6B9B8E1A46614B9B5C4E
:1051D000012B01D10123FB77BB8B0133BB83BA8B3E
:1051E0003B8B9A4202D2FB7F002BC9D0FB7F002B66
:1051F00042D1574B1B685A68FB88542101FB03F3CB
:1052000013449B8CBB820023BB832EE0504B1B6856
:105210005A68FB88542101FB03F313449A6ABB8B41
:105220005B0013441B887B82494B1B68996A7A8A0E
:105230001346DB009B1A9B000B441B69002B11D00B
:10524000434B1B68996A7A8A1346DB009B1A9B00C2
:105250000B441B699B8E1A463E4B9B5C012B01D174
:105260000123FB77BB8B0133BB83BA8BBB8A9A428A
:1052700002D2FB7F002BC9D0FB7F002B61D1344BC6
:105280001B685A68FB88542101FB03F313449B8A73
:105290003B820023BB834DE02D4B1B685A68FB8883
:1052A000542101FB03F313449A69BB8B5B00134445
:1052B0001B88FB81264B1B685A69FB892C2101FB4B
:1052C00003F313441B8CBB8100237B8328E0204B1A
:1052D0001B685A69FB892C2101FB03F313445A6AAA
:1052E0007B8B5B0013441B887B81194B1B68DA693D
:1052F0007B895B0113445B69002B0ED0144B1B6848
:10530000DA697B895B0113445B699B8E1A46114BFA
:105310009B5C012B01D10123FB777B8B01337B83CA
:105320007A8BBB899A4202D2FB7F002BCFD0BB8BFA
:105330000133BB83BA8B3B8A9A4202D2FB7F002B9C
:10534000AAD0FB7F18462437BD465DF8047B704722
:1053500058000020A81F002090B585B000AF03467C
:105360003960FB80FA884B4913465B001344DB002D
:105370000B449B78FB73FC88FB881846FFF7DEFE26
:1053800003461946434A23465B002344DB0013448B
:105390000A469A70FA883F4913465B001344DB00C3
:1053A0000B449B78012B38D1FA883B4B1B6859681A
:1053B000FB88542000FB03F30B449B6C18783549A1
:1053C00013465B001344DB000B44083302461A709B
:1053D000314B1B685A68FB88542101FB03F31344CB
:1053E0009B6C5B789AB23B681A80FB7B002B4CD19C
:1053F000FA88294B1B685968FB88542000FB03F38B
:105400000B449B6C9888234913465B001344DB00D4
:105410000B44103302461A8038E0FA881E4B1B6892
:105420005968FB88542000FB03F30B44DB6C1878AD
:10543000184913465B001344DB000B440833024653
:105440001A70154B1B685A68FB88542101FB03F343
:105450001344DB6C5B789AB23B681A80FB7B012BB0
:1054600013D1FA880C4B1B685968FB88542000FB49
:1054700003F30B44DB6C9888064913465B00134426
:10548000DB000B44103302461A8000BF1437BD46C0
:1054900090BD00BFF81800205800002080B485B0EF
:1054A00000AF03463960FB803B68B3F1FF3F1FD07C
:1054B000124B1B685A68FB88542101FB03F3134409
:1054C0001B8FFB81FB893A68D1088AB21344FA89A1
:1054D00089B20A440A49895C3A68D2B202F00702EA
:1054E000012000FA02F2D2B20A43D1B2044AD154E6
:1054F00000BF1437BD465DF8047B7047580000209C
:10550000881D002080B485B000AF03460A46FB71B9
:105510001346BB80FB79012B39D1374B1B685A6886
:10552000BB88542101FB03F31344DB6B5B7BFB73F0
:10553000BA88324913465B001344DB000B44103336
:105540009B79BB73FA7BBB7B9A420AD1BA882B4901
:1055500013465B001344DB000B44103300229A71A6
:1055600043E0BA88B98825480B465B000B44DB0052
:10557000034410339B790133D8B2204913465B00B2
:105580001344DB000B44103302469A712EE01A4B91
:105590001B681968BA8813461B0113449B000B440F
:1055A0009B6B5B7BFB73BB88154A1B011344083361
:1055B0005B79BB73FA7BBB7B9A4207D1BB88104AED
:1055C0001B011344083300225A710EE0BB88BA88CD
:1055D0000B4912010A44083252790132D1B2084A09
:1055E0001B01134408330A465A7100BF1437BD46E5
:1055F0005DF8047B704700BF58000020F8180020B9
:10560000AC1F002080B584B000AF03460A46FB8083
:1056100013467B7100237B733D4B1B681968FA8826
:1056200013461B0113449B000B441B897B817B8920
:10563000002B69D00023FB8118E0354B1B681968EB
:10564000FA8813461B0113449B000B44DA68FB895C
:105650005B0013441B883B813B892E4AD35C012BA2
:1056600001D101237B73FB890133FB81FA897B899B
:105670009A4202D27B7B002BDFD07B7B012B32D185
:10568000FB88254A1B0113441B78002B3CD1FB8867
:10569000214A1B01134401221A70FB88184600F0AE
:1056A0003DF87B79012B2FD1FB88184600F07CFD5B
:1056B000174B1B681968FA8813461B0113449B009B
:1056C0000B449B6B002B1FD0FB88134A1B01134418
:1056D000083301221A71FB880F4A1B011344083357
:1056E00000229A7111E0FB880B4A1B0113441B78BE
:1056F000012B09D1FB88084A1B01134400221A70B0
:10570000FB88184600F094F800BF1037BD4680BDF6
:1057100058000020202B0020AC1F002080B487B050
:1057200000AF0346FB80404B1B681968FA8813469C
:105730001B0113449B000B441B8BBB820023FB8289
:105740002AE0394B1B681968FA8813461B01134479
:105750009B000B44DA69FB8A5B0013441B887B8245
:10576000314B1B6899687A8A13461B019B1A9B0070
:105770000B445B893B82398A2B4B1B6898687A8A79
:1057800013461B019B1A9B000344DA88274B23F81E
:105790001120FB8A0133FB82FA8ABB8A9A42D0D35A
:1057A000214B1B681968FA8813461B0113449B00A0
:1057B0000B441B8AFB810023FB822AE01A4B1B68E7
:1057C0001968FA8813461B0113449B000B445A695D
:1057D000FB8A5B0013441B88BB81134B1B68196950
:1057E000BA8913465B0013441B010B445B8D3B825B
:1057F000398A0D4B1B681869BA8913465B0013443C
:105800001B0103445A88094B23F81120FB8A0133FA
:10581000FB82FA8AFB899A42D0D300BF1C37BD466F
:105820005DF8047B704700BF580000202C2B00203F
:1058300080B487B000AF0346FB80374B1B68196804
:10584000FA8813461B0113449B000B441B8BBB823D
:105850000023FB8221E0304B1B681968FA8813464D
:105860001B0113449B000B44DA69FB8A5B00134461
:105870001B887B82284B1B6899687A8A13461B0118
:105880009B1A9B000B445B893B823B8A234A002185
:1058900022F81310FB8A0133FB82FA8ABB8A9A42F0
:1058A000D9D31D4B1B681968FA8813461B01134492
:1058B0009B000B441B8AFB810023FB8221E0164BDB
:1058C0001B681968FA8813461B0113449B000B449C
:1058D0005A69FB8A5B0013441B88BB810E4B1B6813
:1058E0001969BA8913465B0013441B010B445B8D95
:1058F0003B823B8A094A002122F81310FB8A0133BC
:10590000FB82FA8AFB899A42D9D300BF1C37BD4675
:105910005DF8047B704700BF580000202C2B00204E
:1059200080B489B000AF03463960FB80704B1B68C0
:105930001968FA8813461B0113449B000B441B8B08
:10594000BB830023FB835BE0694B1B681968FA8803
:1059500013461B0113449B000B44DA69FB8B5B006D
:1059600013441B887B83624B1B6899687A8B1346B0
:105970001B019B1A9B000B445B893B835C4B1B68A0
:1059800099687A8B13461B019B1A9B000B44DB6AB8
:105990007B617B69B3F1FF3F21D07B6903F0070393
:1059A000012202FA03F3FB743B681A687B69DB0887
:1059B00013441A78FB7C1340DBB2FA7C9A421CD168
:1059C000398B4B4B1B6898687A8B13461B019B1ACB
:1059D0009B0003441A89474B23F811200DE0398BB3
:1059E000434B1B6898687A8B13461B019B1A9B00DC
:1059F00003441A893F4B23F81120FB8B0133FB83AF
:105A0000FA8BBB8B9A429FD3394B1B681968FA8873
:105A100013461B0113449B000B441B8A3B8200234B
:105A2000FB835BE0324B1B681968FA8813461B0145
:105A300013449B000B445A69FB8B5B0013441B8887
:105A4000FB812B4B1B681969FA8913465B001344D1
:105A50001B010B445B8D3B83254B1B681969FA893D
:105A600013465B0013441B010B44DB697B617B69BC
:105A7000B3F1FF3F21D07B6903F00703012202FA53
:105A800003F3FB743B681A687B69DB0813441A78DC
:105A9000FB7C1340DBB2FA7C9A421CD1398B144B4D
:105AA0001B681869FA8913465B0013441B01034401
:105AB0009A88104B23F811200DE0398B0C4B1B6892
:105AC0001869FA8913465B0013441B0103449A8842
:105AD000084B23F81120FB8B0133FB83FA8B3B8AA5
:105AE0009A429FD300BF2437BD465DF8047B7047C0
:105AF000580000202C2B002080B58AB000AF034650
:105B0000FB80002387F82730002387F823309F4B42
:105B10001B681968FA8813461B0113449B000B4449
:105B20009B8E3B84FB889A4A1B0113449988974BB0
:105B30001B681868FA8813461B0113449B00034432
:105B4000DB6A9BB2CB1AFB83FB88914A1B0113448F
:105B5000FA8BDA808D4B1B681968FA8813461B0193
:105B600013449B000B441B8BBB830023BB844AE084
:105B7000864B1B681968FA8813461B0113449B0067
:105B80000B44DA69BB8C5B0013441B887B837F4B1F
:105B90001B6899687A8B13461B019B1A9B000B4468
:105BA000DB6A7B617B69B3F1FF3F17D07B6903F050
:105BB0000703012202FA03F3FB743B8C7A69D208D3
:105BC00092B21344734AD25CFB7C1340DBB2FA7C82
:105BD0009A4206D1012387F8233002E0012387F897
:105BE000233097F82330012B0AD1798BFA8B3B8C29
:105BF000084611461A4600F0A9FC002387F8233016
:105C0000BB8C0133BB84BA8CBB8B9A42B0D35F4B45
:105C10001B681968FA8813461B0113449B000B4448
:105C20001B8A3B820023BB844AE0584B1B681968DF
:105C3000FA8813461B0113449B000B445A69BB8C22
:105C40005B0013441B88FB81504B1B681969FA8960
:105C500013465B0013441B010B44DB697B617B69CA
:105C6000B3F1FF3F17D07B6903F00703012202FA6B
:105C700003F3FB743B8C7A69D20892B21344454A11
:105C8000D25CFB7C1340DBB2FA7C9A4206D1012342
:105C900087F8273002E0012387F8273097F827306C
:105CA000012B0AD1F989FA8B3B8C084611461A461A
:105CB00001F08EF9002387F82730BB8C0133BB84B9
:105CC000BA8C3B8A9A42B0D3304B1B681968FA8869
:105CD00013461B0113449B000B441B8CBB81002308
:105CE000BB844AE0294B1B681968FA8813461B01DC
:105CF00013449B000B445A6ABB8C5B0013441B8803
:105D00007B81224B1B68596A7A8913465B001344D6
:105D1000DB000B44DB687B617B69B3F1FF3F17D08D
:105D20007B6903F00703012202FA03F3FB743B8C47
:105D30007A69D20892B21344164AD25CFB7C1340B3
:105D4000DBB2FA7C9A4206D1012387F8233002E0C5
:105D5000012387F8233097F82330012B0AD1798962
:105D6000FA8B3B8C084611461A4600F057FB00237D
:105D700087F82330BB8C0133BB84BA8CBB899A4231
:105D8000B0D300BF2837BD4680BD00BF58000020FB
:105D9000AC1F0020381C002080B584B000AF034643
:105DA0000A46FB8013467B710023FB73FB88464A3F
:105DB0001B01134408331B79012B15D10123FB73FD
:105DC000FB88414A1B01134408337A795A71FB88D6
:105DD00000201946FFF796FBFB883B4A1B01134442
:105DE000083300221A716AE0384B1B681968FA8878
:105DF00013461B0113449B000B449B6B5B7BBB73E3
:105E0000324B1B681968FA8813461B0113449B0028
:105E10000B449B6B1B7B7B73FB882B4A1B0113443E
:105E200008335B793B73BA7B3B7BD21A7B7B9A420C
:105E30000EDA7A793B7B9A4207D27A79797B387B82
:105E4000BB7BC31A0B449A420EDA0123FB730BE0AF
